:100000000C9434000C9451000C9451000C94510049
:100010000C9451000C9451000C9451000C9451001C
:100020000C9451000C9451000C9451000C9451000C
:100030000C9451000C9451000C9453000C945100FA
:100040000C9451000C9451000C9451000C945100EC
:100050000C9451000C9451000C9451000C945100DC
:100060000C9451000C94510011241FBECFEFD8E026
:10007000DEBFCDBF11E0A0E0B1E0ECECF8E002C0E3
:1000800005900D92A831B107D9F721E0A8E1B1E0C0
:1000900001C01D92AA33B207E1F70E942B030C9412
:1000A00064040C9400001F920F920FB60F9211245B
:1000B0002F933F934F935F936F937F938F939F9370
:1000C000AF93BF93EF93FF930E94AF010E94F300A1
:1000D0000E949A00FF91EF91BF91AF919F918F91F4
:1000E0007F916F915F914F913F912F910F900FBE34
:1000F0000F901F90189582E084BD87E287BD16BCE3
:10010000EEE6F0E080818260808385B5826085BD07
:100110008AB188648AB95F9AE0EBF0E080818362FB
:100120008083E1EBF0E080818C60808384B1896121
:1001300084B9089580912E0190912F01A0913001F2
:10014000B0913101863C9140A105B10558F081E0A4
:100150008093250110922E0110922F0110923001F0
:100160001092310180912401883100F5539A8091D9
:100170002501813019F5E0912401F0E0E050FF4FB6
:100180008081813071F48AEF8093B3008DE7809392
:10019000B400809124018F5F809324011092250187
:1001A000089584E58093B3008AE2F1CF8091240121
:1001B000883129F480912501813059F308955398AD
:1001C00080912201909123010196909323018093C5
:1001D000220189399A4390F310922401109223014D
:1001E00010922201EBCF80912A0190912B01A091D6
:1001F0002C01B0912D010197A105B10509F45E9A7A
:1002000080912A0190912B01A0912C01B0912D0198
:100210000297A105B10509F45E9808954D9B13C09E
:1002200080911B0181110FC080912A0190912B01B7
:10023000A0912C01B0912D01909321018093200178
:1002400081E080931B014D9926C080911B01813074
:1002500011F510921B0160912A0170912B01809180
:100260002C0190912D012091200130912101621BE0
:10027000730B810991090E94450322EB3DE94FEA86
:100280005EE30E94A60360931C0170931D0180939E
:100290001E0190931F01089560911C0170911D0132
:1002A00080911E0190911F010895CF92DF92EF92ED
:1002B000FF92C0901C01D0901D01E0901E01F090B3
:1002C0001F0120E030E040E752E4C701B6010E9480
:1002D00040031816B4F080911A018F5F80931A01C1
:1002E0001092180110921901843034F02C9A85B1C3
:1002F000867F85B910921A01FF90EF90DF90CF9022
:10030000089520E030E040EF52E4C701B6010E94BA
:100310004003181694F0809118018F5F80931801A4
:1003200010921A0110921901843034F32B9A85B17E
:100330008E7E85B910921801DFCF809119018F5FF1
:100340008093190110921A01109218018430A4F2BE
:10035000289A85B1877E85B910921901CDCF8091F9
:100360002E0190912F01A0913001B09131010196A1
:10037000A11DB11D80932E0190932F01A0933001F8
:10038000B093310180912A0190912B01A0912C0111
:10039000B0912D010196A11DB11D80932A0190936A
:1003A0002B01A0932C01B0932D01809126019091F7
:1003B0002701A0912801B09129010196A11DB11D2D
:1003C0008093260190932701A0932801B0932901DF
:1003D00080912A0190912B01A0912C01B0912D01C7
:1003E000893B9B40A105B10540F010922A01109273
:1003F0002B0110922C0110922D010895219A3B9A05
:1004000082E8809380008AE1809381008FE39CE9F9
:10041000909387008093860080EA9FE09093890004
:100420008093880008952091320130913301223069
:10043000310509F46AC038F42115310579F021300D
:10044000310561F108952430310509F4CAC008F47A
:100450009BC02530310509F4FCC008958130C1F4FA
:10046000439A81E090E09093330180933201809130
:10047000260190912701A0912801B0912901809334
:10048000340190933501A0933601B093370108955C
:10049000823009F0DDC085E090E0E5CF8091260153
:1004A00090912701A0912801B09129014091340138
:1004B000509135016091360170913701841B950B85
:1004C000A60BB70B843C9940A105B10508F4C0C048
:1004D0008091260190912701A0912801B0912901D6
:1004E0008093340190933501A0933601B093370186
:1004F00080EA9FE0909339018093380182E090E098
:100500009093330180933201089580912601909158
:100510002701A0912801B091290140913401509107
:1005200035016091360170913701841B950BA60B44
:10053000B70B8A3F9105A105B10508F489C08091E8
:10054000380190913901893E23E0920750F0449799
:1005500090933901809338019093890080938800AB
:1005600086CF8091260190912701A0912801B0911A
:1005700029018093340190933501A0933601B09303
:10058000370183E090E0BCCF809126019091270154
:10059000A0912801B0912901409134015091350179
:1005A0006091360170913701841B950BA60BB70B38
:1005B0008035934CA105B10508F44AC0809126010D
:1005C00090912701A0912801B091290180933401D5
:1005D00090933501A0933601B093370184E090E009
:1005E0008FCF8091260190912701A0912801B09191
:1005F000290140913401509135016091360170918B
:100600003701841B950BA60BB70B8A3F9105A105FB
:10061000B105F0F080913801909139018C3A2DE0CC
:10062000920710F4449694CF80912601909127016F
:10063000A0912801B0912901809334019093350154
:10064000A0933601B093370110923301109232011A
:1006500008954398F9CF429A0E947B000E94FE01C0
:100660007894C0E0D1E00E940E010E9455018C2FC9
:100670000E941302C6B1C2FBCC27C0F9CD27F3CF2D
:100680000E94820308F481E00895E89409C097FB72
:100690003EF490958095709561957F4F8F4F9F4F59
:1006A0009923A9F0F92F96E9BB279395F69587959D
:1006B00077956795B795F111F8CFFAF4BB0F11F460
:1006C00060FF1BC06F5F7F4F8F4F9F4F16C0882307
:1006D00011F096E911C0772321F09EE8872F762F3D
:1006E00005C0662371F096E8862F70E060E02AF07E
:1006F0009A95660F771F881FDAF7880F969587956A
:1007000097F90895990F0008550FAA0BE0E8FEEF3E
:1007100016161706E807F907C0F012161306E407C5
:10072000F50798F0621B730B840B950B39F40A26BE
:1007300061F0232B242B252B21F408950A2609F49C
:10074000A140A6958FEF811D811D08950E94B903D8
:100750000C942A040E941C0438F00E94230420F008
:10076000952311F00C9413040C94190411240C9487
:100770005E040E943B0470F3959FC1F3950F50E017
:10078000551F629FF001729FBB27F00DB11D639F43
:10079000AA27F00DB11DAA1F649F6627B00DA11DE9
:1007A000661F829F2227B00DA11D621F739FB00D8F
:1007B000A11D621F839FA00D611D221F749F3327FF
:1007C000A00D611D231F849F600D211D822F762F98
:1007D0006A2F11249F5750409AF0F1F088234AF075
:1007E000EE0FFF1FBB1F661F771F881F91505040E1
:1007F000A9F79E3F510580F00C9413040C945E04FD
:100800005F3FE4F3983ED4F3869577956795B79567
:10081000F795E7959F5FC1F7FE2B880F911D969581
:10082000879597F9089597F99F6780E870E060E0F1
:1008300008959FEF80EC089500240A941616170679
:1008400018060906089500240A94121613061406C1
:1008500005060895092E0394000C11F4882352F024
:10086000BB0F40F4BF2B11F460FF04C06F5F7F4FDC
:100870008F4F9F4F089557FD9058440F551F59F0C3
:100880005F3F71F04795880F97FB991F61F09F3F7D
:1008900079F087950895121613061406551FF2CFA6
:1008A0004695F1DF08C0161617061806991FF1CFF6
:1008B00086957105610508940895E894BB2766271D
:0C08C0007727CB0197F90895F894FFCF3B
:1008CC000001000000000100010000010100010016
:0808DC00010001000000010011
:00000001FF
