:100000000C9434000C9451000C9451000C94510049
:100010000C9451000C9451000C9451000C9451001C
:100020000C9451000C9451000C9451000C9451000C
:100030000C9451000C9451000C9453000C945100FA
:100040000C9451000C9451000C947D000C94A0036E
:100050000C9451000C9451000C9451000C945100DC
:100060000C9451000C94510011241FBECFEFD8E026
:10007000DEBFCDBF11E0A0E0B1E0EAE9FFE002C0E1
:1000800005900D92AA31B107D9F721E0AAE1B1E0BC
:1000900001C01D92A037B207E1F70E9493050C94AE
:1000A000CB070C9400001F920F920FB60F921124F1
:1000B0002F933F934F935F936F937F938F939F9370
:1000C000AF93BF93EF93FF930E9400020E94080139
:1000D0000E94AF000E947505FF91EF91BF91AF9113
:1000E0009F918F917F916F915F914F913F912F9150
:1000F0000F900FBE0F901F9018951F920F920FB682
:100100000F9211248F938091C60080931A0181E091
:1001100080931B018F910F900FBE0F901F90189529
:1001200082E084BD87E287BD16BCEEE6F0E0808108
:100130008260808385B5826085BD8AB188648AB912
:100140005F9AE0EBF0E0808183628083E1EBF0E096
:1001500080818C60808384B1896184B908958091A5
:100160003A0190913B01A0913C01B0913D01863C48
:100170009140A105B10558F081E0809331011092C2
:100180003A0110923B0110923C0110923D01809186
:100190003001883100F5539A80913101813019F591
:1001A000E0913001F0E0EE5FFE4F8081813071F42C
:1001B0008AEF8093B3008DE78093B4008091300183
:1001C0008F5F8093300110923101089584E5809310
:1001D000B3008AE2F1CF80913001883129F4809117
:1001E0003101813059F30895539880912E019091F7
:1001F0002F01019690932F0180932E018131974218
:1002000090F31092300110922F0110922E01EBCF3B
:100210008091360190913701A0913801B091390158
:100220000197A105B10509F45E9A8091360190917C
:100230003701A0913801B09139010297A105B105AC
:1002400009F45E9808954D9B13C08091230181119C
:100250000FC08091360190913701A0913801B09183
:100260003901909329018093280181E08093230133
:100270004D9926C080912301813011F51092230100
:100280006091360170913701809138019091390168
:100290002091280130912901621B730B810991097A
:1002A0000E94AC0622EB3DE94FEA5EE30E945E0746
:1002B0006093240170932501809326019093270178
:1002C00008956091240170912501809126019091FB
:1002D00027010895CF92DF92EF92FF920F931F9321
:1002E0008FB7F894409132015091330160913401FD
:1002F0007091350140932A0150932B0160932C019A
:1003000070932D018FBF80912A0190912B01A091B4
:100310002C01B0912D0140911C0150911D01609163
:100320001E0170911F018C019D01041B150B260BF2
:10033000370BB901A801483853416105710558F1DF
:1003400080931C0190931D01A0931E01B0931F0187
:10035000C0902401D0902501E0902601F090270163
:1003600020E030E040E752E4C701B6010E94710688
:100370001816C4F0809122018F5F809322011092A1
:10038000200110922101843034F02C9A85B1867FAF
:1003900085B9109222011F910F91FF90EF90DF908D
:1003A000CF90089520E030E040EF52E4C701B6015D
:1003B0000E947106181694F0809120018F5F80933F
:1003C00020011092220110922101843024F32B9AF3
:1003D00085B18E7E85B910922001DDCF80912101FB
:1003E0008F5F8093210110922201109220018430AE
:1003F00094F2289A85B1877E85B910922101CBCFDE
:1004000080913A0190913B01A0913C01B0913D0156
:100410000196A11DB11D80933A0190933B01A093D9
:100420003C01B0933D018091360190913701A0913C
:100430003801B09139010196A11DB11D809336019B
:1004400090933701A0933801B09339018091320124
:1004500090913301A0913401B09135010196A11D15
:10046000B11D8093320190933301A0933401B09376
:1004700035018091360190913701A0913801B091FA
:100480003901893B9B40A105B10540F0109236012E
:100490001092370110923801109239010895219A73
:1004A0003B9A82E8809380008AE1809381008FE309
:1004B0009CE9909387008093860080EA9FE0909368
:1004C000890080938800089520913E0130913F017A
:1004D0002230310509F46AC038F42115310579F06C
:1004E0002130310561F108952430310509F4CAC085
:1004F00008F49BC02530310509F4FCC00895813013
:10050000C1F4439A81E090E090933F0180933E01D3
:100510008091320190913301A0913401B091350165
:100520008093400190934101A0934201B093430115
:100530000895823009F0DDC085E090E0E5CF80913C
:10054000320190913301A0913401B0913501409175
:100550004001509141016091420170914301841B1F
:10056000950BA60BB70B843C9940A105B10508F487
:10057000C0C08091320190913301A0913401B091BB
:1005800035018093400190934101A0934201B093C3
:10059000430180EA9FE0909345018093440182E00B
:1005A00090E090933F0180933E0108958091320145
:1005B00090913301A0913401B091350140914001F7
:1005C000509141016091420170914301841B950B50
:1005D000A60BB70B8A3F9105A105B10508F489C0A8
:1005E0008091440190914501893E23E0920750F0AB
:1005F00044979093450180934401909389008093A0
:10060000880086CF8091320190913301A09134010E
:10061000B09135018093400190934101A093420134
:10062000B093430183E090E0BCCF80913201909180
:100630003301A0913401B0913501409140015091B6
:1006400041016091420170914301841B950BA60BFF
:10065000B70B8039904DA340B10508F44AC0809192
:10066000320190913301A0913401B0913501809312
:10067000400190934101A0934201B093430184E073
:1006800090E08FCF8091320190913301A09134019D
:10069000B09135014091400150914101609142017A
:1006A00070914301841B950BA60BB70B8A3F9105F4
:1006B000A105B105F0F0809144019091450180378A
:1006C00027E1920710F4449694CF809132019091E3
:1006D0003301A0913401B091350180934001909392
:1006E0004101A0934201B093430110923F01109247
:1006F0003E0108954398F9CF9093C5008093C400BC
:1007000088E98093C10086E08093C200089520911B
:10071000470130E02F5F3F4F2F7133279091460103
:10072000921769F0E0914701F0E0E85BFE4F8083AB
:10073000209347018091C10080628093C100089599
:100740001F920F920FB60F9211248F939F93EF93E6
:10075000FF9390914601809147019817C9F0E0916D
:100760004601F0E0E85BFE4F80818093C6008091F7
:10077000460190E001968F71992780934601FF9181
:10078000EF919F918F910F900FBE0F901F90189532
:100790008091C1008F7D8093C100F1CF9091C00006
:1007A00095FFFCCF8093C6000895CF93DF93EC01B3
:1007B0008991811103C0DF91CF9108950E94870331
:1007C000F7CF4F925F926F927F928F929F92AF92EC
:1007D000BF92CF92DF92EF92FF920F931F93CF932E
:1007E000DF93CDB7DEB760970FB6F894DEBF0FBECC
:1007F000CDBF6B017C010E9476062B018B01072E79
:10080000000C880B990B0E94AE069B01AC01C7013E
:10081000B6010E94040620E030E048EC52E40E9459
:100820005E070E9476065B0177FF04C0AA24BB2402
:10083000A61AB70ACE0101967C0117FF10C08DE2FF
:100840008983002711270419150921E030E0670189
:10085000C20ED31E46018AE0682E712C42C00115DB
:10086000110509F067C080E38983E1E0F0E0D7017A
:10087000AE0FBF1F8EE28C939E012E0F3F1FC5014E
:100880006AE070E00E94DC05605DD90112966C930D
:100890001297805D13968C9313978DE014968C932A
:1008A00014978AE015968C93F9011682C7010E946D
:1008B000D50360960FB6F894DEBF0FBECDBFDF91B3
:1008C000CF911F910F91FF90EF90DF90CF90BF904D
:1008D000AF909F908F907F906F905F904F90089512
:1008E0009F01F9013196C801B3010E94DC05805DCA
:1008F000D4018D934D018B01672B91F7A701420F16
:10090000531F9A012E193F09C6018E199F0982179C
:1009100093070CF0ACCFD6018D916D01DA019C915B
:10092000960121503109D9019C93DA018C934150F1
:100930005109E7CF30E020E08ACF229A399AE0E8E7
:10094000F0E08081806280831092690110926801DA
:10095000419A88EB9BE090938B0080938A0082E31E
:1009600090E0909301018093000110926B0110922E
:100970006A0110926C0110926D0110926E0110923A
:100980006F01089520916A0130916B01213031058A
:1009900021F148F02230310509F458C023303105E7
:1009A00009F469C00895813009F09EC08091320138
:1009B00090913301A0913401B091350180936C0185
:1009C00090936D01A0936E01B0936F0181E090E070
:1009D00090936B0180936A01089580913201909108
:1009E0003301A0913401B091350140916C015091D7
:1009F0006D0160916E0170916F01841B950BA60BC8
:100A0000B70B843C9940A105B10508F46DC088EE90
:100A100093E090938B0080938A0084E690E090931B
:100A20000101809300018091320190913301A091E6
:100A30003401B091350180936C0190936D01A093C6
:100A40006E01B0936F0182E090E0C2CF81114CC083
:100A50008091320190913301A0913401B091350120
:100A600080936C0190936D01A0936E01B0936F0120
:100A700083E090E0ADCF8091320190913301A0915D
:100A80003401B091350140916C0150916D0160913C
:100A90006E0170916F01841B950BA60BB70B843C04
:100AA0009940A105B10500F188EB9BE090938B0084
:100AB00080938A0082E390E090930101809300018B
:100AC0008091320190913301A0913401B0913501B0
:100AD00080936C0190936D01A0936E01B0936F01B0
:100AE00010926B0110926A010895809168019091B3
:100AF000690101969093690180936801209100013A
:100B0000309101018217930708F0419880916801A4
:100B100090916901883E934028F0109269011092EB
:100B20006801419A0895429A0E9490000E944F02E3
:100B300087E690E00E947C030E949D047894D0E0B8
:100B4000C0E00E9423010E946A0180911B0188235A
:100B500059F010921B0180911A01823019F17CF436
:100B60008823B1F08130C9F08C2F0E9464028D2F50
:100B70000E94C2043299E4CFD1E0C1E0E2CF8330D9
:100B8000B1F0843089F782E50E94CE03D1E0ECCF4A
:100B900089E40E94CE03C0E0E7CF89E50E94CE033E
:100BA000C1E0E2CF8EE40E94CE03C2E0DDCF89E453
:100BB0000E94CE03D0E0D8CF97FB072E16F4009406
:100BC00007D077FD09D00E94F00507FC05D03EF460
:100BD000909581959F4F0895709561957F4F0895E9
:100BE000AA1BBB1B51E107C0AA1FBB1FA617B70753
:100BF00010F0A61BB70B881F991F5A95A9F780956F
:100C00009095BC01CD0108955058BB27AA270E949A
:100C10001C060C9424070E94160738F00E941D073A
:100C200020F039F49F3F19F426F40C9413070EF4C6
:100C3000E095E7FB0C940D07E92F0E94350758F368
:100C4000BA17620773078407950720F079F4A6F5B1
:100C50000C9457070EF4E0950B2EBA2FA02D0B0124
:100C6000B90190010C01CA01A0011124FF27591BF1
:100C700099F0593F50F4503E68F11A16F040A22FF7
:100C8000232F342F4427585FF3CF46953795279568
:100C9000A795F0405395C9F77EF41F16BA0B620B67
:100CA000730B840BBAF09150A1F0FF0FBB1F661FAE
:100CB000771F881FC2F70EC0BA0F621F731F841FF1
:100CC00048F4879577956795B795F7959E3F08F017
:100CD000B0CF9395880F08F09927EE0F97958795D9
:100CE00008950E94E90608F481E008950E947D06B7
:100CF0006894B1110C94580708950E943D0788F03C
:100D00009F5798F0B92F9927B751B0F0E1F0660FCF
:100D1000771F881F991F1AF0BA95C9F714C0B13010
:100D200091F00E945707B1E008950C945707672F80
:100D3000782F8827B85F39F0B93FCCF3869577953F
:100D40006795B395D9F73EF4909580957095619528
:100D50007F4F8F4F9F4F0895E89409C097FB3EF453
:100D600090958095709561957F4F8F4F9F4F9923F8
:100D7000A9F0F92F96E9BB279395F6958795779576
:100D80006795B795F111F8CFFAF4BB0F11F460FF36
:100D90001BC06F5F7F4F8F4F9F4F16C0882311F08E
:100DA00096E911C0772321F09EE8872F762F05C0A2
:100DB000662371F096E8862F70E060E02AF09A953D
:100DC000660F771F881FDAF7880F9695879597F932
:100DD0000895990F0008550FAA0BE0E8FEEF1616CC
:100DE0001706E807F907C0F012161306E407F5071F
:100DF00098F0621B730B840B950B39F40A2661F093
:100E0000232B242B252B21F408950A2609F4A14035
:100E1000A6958FEF811D811D089597F99F6780E842
:100E200070E060E008959FEF80EC089500240A943C
:100E30001616170618060906089500240A941216B5
:100E40001306140605060895092E0394000C11F4E8
:100E5000882352F0BB0F40F4BF2B11F460FF04C095
:100E60006F5F7F4F8F4F9F4F089557FD9058440FEE
:100E7000551F59F05F3F71F04795880F97FB991FF9
:100E800061F09F3F79F087950895121613061406B6
:100E9000551FF2CF4695F1DF08C016161706180643
:100EA000991FF1CF86957105610508940895E8941E
:100EB000BB2766277727CB0197F908950E94710712
:100EC0000C9424070E94160738F00E941D0720F09A
:100ED000952311F00C940D070C94130711240C9416
:100EE00058070E94350770F3959FC1F3950F50E0A6
:100EF000551F629FF001729FBB27F00DB11D639FCC
:100F0000AA27F00DB11DAA1F649F6627B00DA11D71
:100F1000661F829F2227B00DA11D621F739FB00D17
:100F2000A11D621F839FA00D611D221F749F332787
:100F3000A00D611D231F849F600D211D822F762F20
:100F40006A2F11249F5750409AF0F1F088234AF0FD
:100F5000EE0FFF1FBB1F661F771F881F9150504069
:100F6000A9F79E3F510580F00C940D070C9458078B
:100F70005F3FE4F3983ED4F3869577956795B795F0
:100F8000F795E7959F5FC1F7FE2B880F911D96950A
:0A0F9000879597F90895F894FFCFB4
:100F9A003200000100000000010001000001010010
:0A0FAA000100010001000000010039
:00000001FF
