:100000000C9434000C9451000C9451000C94510049
:100010000C9451000C9451000C9451000C9451001C
:100020000C9451000C9451000C9451000C9451000C
:100030000C9451000C9451000C9453000C945100FA
:100040000C9451000C9451000C9451000C945100EC
:100050000C9451000C9451000C9451000C945100DC
:100060000C9451000C94510011241FBECFEFD8E026
:10007000DEBFCDBF11E0A0E0B1E0E8E2F6E002C0F3
:1000800005900D92A831B107D9F721E0A8E1B1E0C0
:1000900001C01D92AE32B207E1F70E94E7010C9455
:1000A00012030C9400001F920F920FB60F921124AE
:1000B0002F933F934F935F936F937F938F939F9370
:1000C000AF93BF93EF93FF930E9403010E949700A9
:1000D000FF91EF91BF91AF919F918F917F916F9120
:1000E0005F914F913F912F910F900FBE0F901F90F6
:1000F000189582E084BD87E287BD16BCEEE6F0E08D
:1001000080818260808385B5826085BD539A5F9AC5
:10011000E0EBF0E0808183628083E1EBF0E08081BE
:100120008C60808384B18E6184B9789408958091C5
:10013000260190912701A0912801B09129010196F3
:10014000A11DB11D8093260190932701A093280142
:10015000B09329018091260190912701A091280157
:10016000B0912901863C9140A105B10558F081E08C
:1001700080932D01109226011092270110922801E0
:100180001092290180912C01883100F5539A8091B9
:100190002D01813019F5E0912C01F0E0E050FF4F86
:1001A0008081813071F48AEF8093B3008DE7809372
:1001B000B40080912C018F5F80932C0110922D014F
:1001C000089584E58093B3008AE2F1CF80912C01F9
:1001D000883129F480912D01813059F30895539885
:1001E00080912A0190912B01019690932B0180938D
:1001F0002A0189399A4390F310922C0110922B0115
:1002000010922A01EBCF8091220190912301A091BD
:100210002401B09125010196A11DB11D80932201F9
:1002200090932301A0932401B09325018091220192
:1002300090912301A0912401B0912501893B9B401D
:10024000A105B10540F010922201109223011092F5
:100250002401109225018091220190912301A09107
:100260002401B09125010197A105B10509F4299A4E
:100270008091220190912301A0912401B091250148
:100280000297A105B10509F429980895189B13C098
:1002900080911B0181110FC0809122019091230157
:1002A000A0912401B0912501909321018093200118
:1002B00081E080931B01189926C080911B01813039
:1002C00011F510921B016091220170912301809120
:1002D0002401909125012091200130912101621B80
:1002E000730B810991090E94F30122EB3DE94FEA6A
:1002F0005EE30E94540260931C0170931D01809381
:100300001E0190931F01089560911C0170911D01C1
:1003100080911E0190911F010895CF92DF92EF927C
:10032000FF92C0901C01D0901D01E0901E01F09042
:100330001F0120E030E040E752E4C701B6010E940F
:10034000EE011816B4F080911A018F5F80931A01A4
:100350001092180110921901843034F02C9A85B152
:10036000837F85B910921A01FF90EF90DF90CF90B4
:10037000089520E030E040EF52E4C701B6010E944A
:10038000EE01181694F0809118018F5F8093180188
:1003900010921A0110921901843034F32B9A85B10E
:1003A0008B7E85B910921801DFCF809119018F5F84
:1003B0008093190110921A01109218018430A4F24E
:1003C0002A9A85B1877E85B910921901CDCF0E94F6
:1003D00079000E9446010E948D01FBCF0E943002ED
:1003E00008F481E00895E89409C097FB3EF49095E5
:1003F0008095709561957F4F8F4F9F4F9923A9F0FE
:10040000F92F96E9BB279395F6958795779567958C
:10041000B795F111F8CFFAF4BB0F11F460FF1BC0D0
:100420006F5F7F4F8F4F9F4F16C0882311F096E963
:1004300011C0772321F09EE8872F762F05C0662311
:1004400071F096E8862F70E060E02AF09A95660FCA
:10045000771F881FDAF7880F9695879597F9089583
:10046000990F0008550FAA0BE0E8FEEF16161706C5
:10047000E807F907C0F012161306E407F50798F02D
:10048000621B730B840B950B39F40A2661F0232B46
:10049000242B252B21F408950A2609F4A140A695C2
:1004A0008FEF811D811D08950E9467020C94D80270
:1004B0000E94CA0238F00E94D10220F0952311F068
:1004C0000C94C1020C94C70211240C940C030E94DA
:1004D000E90270F3959FC1F3950F50E0551F629F9D
:1004E000F001729FBB27F00DB11D639FAA27F00D8D
:1004F000B11DAA1F649F6627B00DA11D661F829FB4
:100500002227B00DA11D621F739FB00DA11D621F98
:10051000839FA00D611D221F749F3327A00D611DB5
:10052000231F849F600D211D822F762F6A2F112497
:100530009F5750409AF0F1F088234AF0EE0FFF1FCA
:10054000BB1F661F771F881F91505040A9F79E3F21
:10055000510580F00C94C1020C940C035F3FE4F34E
:10056000983ED4F3869577956795B795F795E79577
:100570009F5FC1F7FE2B880F911D9695879597F980
:10058000089597F99F6780E870E060E008959FEF15
:1005900080EC089500240A9416161706180609061A
:1005A000089500240A9412161306140605060895E9
:1005B000092E0394000C11F4882352F0BB0F40F471
:1005C000BF2B11F460FF04C06F5F7F4F8F4F9F4FB1
:1005D000089557FD9058440F551F59F05F3F71F033
:1005E0004795880F97FB991F61F09F3F79F087959A
:1005F0000895121613061406551FF2CF4695F1DF23
:1006000008C0161617061806991FF1CF86957105B2
:10061000610508940895E894BB2766277727CB01E6
:0806200097F90895F894FFCF4B
:1006280000010000000001000100000101000100BC
:080638000100010000000100B7
:00000001FF
